{
  "_format": "hh-sol-artifact-1",
  "contractName": "LandRegistry",
  "sourceName": "contracts/LandRegistry.sol",
  "abi": [
    {
      "inputs": [],
      "stateMutability": "nonpayable",
      "type": "constructor"
    },
    {
      "inputs": [
        {
          "internalType": "address",
          "name": "owner",
          "type": "address"
        }
      ],
      "name": "OwnableInvalidOwner",
      "type": "error"
    },
    {
      "inputs": [
        {
          "internalType": "address",
          "name": "account",
          "type": "address"
        }
      ],
      "name": "OwnableUnauthorizedAccount",
      "type": "error"
    },
    {
      "inputs": [],
      "name": "ReentrancyGuardReentrantCall",
      "type": "error"
    },
    {
      "anonymous": false,
      "inputs": [
        {
          "indexed": true,
          "internalType": "uint256",
          "name": "landId",
          "type": "uint256"
        },
        {
          "indexed": false,
          "internalType": "string",
          "name": "newIpfsHash",
          "type": "string"
        }
      ],
      "name": "DocumentUpdated",
      "type": "event"
    },
    {
      "anonymous": false,
      "inputs": [
        {
          "indexed": true,
          "internalType": "uint256",
          "name": "landId",
          "type": "uint256"
        },
        {
          "indexed": false,
          "internalType": "string",
          "name": "surveyNumber",
          "type": "string"
        },
        {
          "indexed": true,
          "internalType": "address",
          "name": "owner",
          "type": "address"
        },
        {
          "indexed": false,
          "internalType": "string",
          "name": "location",
          "type": "string"
        },
        {
          "indexed": false,
          "internalType": "uint256",
          "name": "area",
          "type": "uint256"
        }
      ],
      "name": "LandRegistered",
      "type": "event"
    },
    {
      "anonymous": false,
      "inputs": [
        {
          "indexed": true,
          "internalType": "uint256",
          "name": "landId",
          "type": "uint256"
        },
        {
          "indexed": true,
          "internalType": "address",
          "name": "verifier",
          "type": "address"
        }
      ],
      "name": "LandVerified",
      "type": "event"
    },
    {
      "anonymous": false,
      "inputs": [
        {
          "indexed": true,
          "internalType": "address",
          "name": "previousOwner",
          "type": "address"
        },
        {
          "indexed": true,
          "internalType": "address",
          "name": "newOwner",
          "type": "address"
        }
      ],
      "name": "OwnershipTransferred",
      "type": "event"
    },
    {
      "anonymous": false,
      "inputs": [
        {
          "indexed": true,
          "internalType": "uint256",
          "name": "landId",
          "type": "uint256"
        },
        {
          "indexed": true,
          "internalType": "address",
          "name": "from",
          "type": "address"
        },
        {
          "indexed": true,
          "internalType": "address",
          "name": "to",
          "type": "address"
        }
      ],
      "name": "TransferApproved",
      "type": "event"
    },
    {
      "anonymous": false,
      "inputs": [
        {
          "indexed": true,
          "internalType": "uint256",
          "name": "landId",
          "type": "uint256"
        },
        {
          "indexed": true,
          "internalType": "address",
          "name": "from",
          "type": "address"
        },
        {
          "indexed": true,
          "internalType": "address",
          "name": "to",
          "type": "address"
        }
      ],
      "name": "TransferCompleted",
      "type": "event"
    },
    {
      "anonymous": false,
      "inputs": [
        {
          "indexed": true,
          "internalType": "uint256",
          "name": "landId",
          "type": "uint256"
        },
        {
          "indexed": true,
          "internalType": "address",
          "name": "from",
          "type": "address"
        },
        {
          "indexed": true,
          "internalType": "address",
          "name": "to",
          "type": "address"
        },
        {
          "indexed": false,
          "internalType": "uint256",
          "name": "requestId",
          "type": "uint256"
        }
      ],
      "name": "TransferRequested",
      "type": "event"
    },
    {
      "inputs": [
        {
          "internalType": "address",
          "name": "official",
          "type": "address"
        }
      ],
      "name": "addAuthorizedOfficial",
      "outputs": [],
      "stateMutability": "nonpayable",
      "type": "function"
    },
    {
      "inputs": [
        {
          "internalType": "uint256",
          "name": "landId",
          "type": "uint256"
        }
      ],
      "name": "approveTransfer",
      "outputs": [],
      "stateMutability": "nonpayable",
      "type": "function"
    },
    {
      "inputs": [
        {
          "internalType": "address",
          "name": "",
          "type": "address"
        }
      ],
      "name": "authorizedOfficials",
      "outputs": [
        {
          "internalType": "bool",
          "name": "",
          "type": "bool"
        }
      ],
      "stateMutability": "view",
      "type": "function"
    },
    {
      "inputs": [
        {
          "internalType": "uint256",
          "name": "landId",
          "type": "uint256"
        }
      ],
      "name": "completeTransfer",
      "outputs": [],
      "stateMutability": "nonpayable",
      "type": "function"
    },
    {
      "inputs": [
        {
          "internalType": "uint256",
          "name": "landId",
          "type": "uint256"
        }
      ],
      "name": "getLand",
      "outputs": [
        {
          "components": [
            {
              "internalType": "uint256",
              "name": "landId",
              "type": "uint256"
            },
            {
              "internalType": "string",
              "name": "surveyNumber",
              "type": "string"
            },
            {
              "internalType": "address",
              "name": "currentOwner",
              "type": "address"
            },
            {
              "internalType": "address",
              "name": "previousOwner",
              "type": "address"
            },
            {
              "internalType": "string",
              "name": "location",
              "type": "string"
            },
            {
              "internalType": "uint256",
              "name": "area",
              "type": "uint256"
            },
            {
              "internalType": "string",
              "name": "ipfsHash",
              "type": "string"
            },
            {
              "internalType": "uint256",
              "name": "registrationDate",
              "type": "uint256"
            },
            {
              "internalType": "uint256",
              "name": "lastTransferDate",
              "type": "uint256"
            },
            {
              "internalType": "bool",
              "name": "isVerified",
              "type": "bool"
            },
            {
              "internalType": "string",
              "name": "gpsCoordinates",
              "type": "string"
            },
            {
              "internalType": "uint256",
              "name": "marketValue",
              "type": "uint256"
            },
            {
              "internalType": "enum LandRegistry.LandStatus",
              "name": "status",
              "type": "uint8"
            }
          ],
          "internalType": "struct LandRegistry.Land",
          "name": "",
          "type": "tuple"
        }
      ],
      "stateMutability": "view",
      "type": "function"
    },
    {
      "inputs": [
        {
          "internalType": "string",
          "name": "surveyNumber",
          "type": "string"
        }
      ],
      "name": "getLandIdBySurveyNumber",
      "outputs": [
        {
          "internalType": "uint256",
          "name": "",
          "type": "uint256"
        }
      ],
      "stateMutability": "view",
      "type": "function"
    },
    {
      "inputs": [
        {
          "internalType": "address",
          "name": "owner",
          "type": "address"
        }
      ],
      "name": "getLandsByOwner",
      "outputs": [
        {
          "internalType": "uint256[]",
          "name": "",
          "type": "uint256[]"
        }
      ],
      "stateMutability": "view",
      "type": "function"
    },
    {
      "inputs": [],
      "name": "getTotalLands",
      "outputs": [
        {
          "internalType": "uint256",
          "name": "",
          "type": "uint256"
        }
      ],
      "stateMutability": "view",
      "type": "function"
    },
    {
      "inputs": [
        {
          "internalType": "uint256",
          "name": "landId",
          "type": "uint256"
        }
      ],
      "name": "getTransferRequest",
      "outputs": [
        {
          "components": [
            {
              "internalType": "uint256",
              "name": "landId",
              "type": "uint256"
            },
            {
              "internalType": "address",
              "name": "from",
              "type": "address"
            },
            {
              "internalType": "address",
              "name": "to",
              "type": "address"
            },
            {
              "internalType": "uint256",
              "name": "requestDate",
              "type": "uint256"
            },
            {
              "internalType": "string",
              "name": "reason",
              "type": "string"
            },
            {
              "internalType": "bool",
              "name": "isApproved",
              "type": "bool"
            },
            {
              "internalType": "bool",
              "name": "isCompleted",
              "type": "bool"
            }
          ],
          "internalType": "struct LandRegistry.TransferRequest",
          "name": "",
          "type": "tuple"
        }
      ],
      "stateMutability": "view",
      "type": "function"
    },
    {
      "inputs": [
        {
          "internalType": "uint256",
          "name": "",
          "type": "uint256"
        }
      ],
      "name": "lands",
      "outputs": [
        {
          "internalType": "uint256",
          "name": "landId",
          "type": "uint256"
        },
        {
          "internalType": "string",
          "name": "surveyNumber",
          "type": "string"
        },
        {
          "internalType": "address",
          "name": "currentOwner",
          "type": "address"
        },
        {
          "internalType": "address",
          "name": "previousOwner",
          "type": "address"
        },
        {
          "internalType": "string",
          "name": "location",
          "type": "string"
        },
        {
          "internalType": "uint256",
          "name": "area",
          "type": "uint256"
        },
        {
          "internalType": "string",
          "name": "ipfsHash",
          "type": "string"
        },
        {
          "internalType": "uint256",
          "name": "registrationDate",
          "type": "uint256"
        },
        {
          "internalType": "uint256",
          "name": "lastTransferDate",
          "type": "uint256"
        },
        {
          "internalType": "bool",
          "name": "isVerified",
          "type": "bool"
        },
        {
          "internalType": "string",
          "name": "gpsCoordinates",
          "type": "string"
        },
        {
          "internalType": "uint256",
          "name": "marketValue",
          "type": "uint256"
        },
        {
          "internalType": "enum LandRegistry.LandStatus",
          "name": "status",
          "type": "uint8"
        }
      ],
      "stateMutability": "view",
      "type": "function"
    },
    {
      "inputs": [],
      "name": "owner",
      "outputs": [
        {
          "internalType": "address",
          "name": "",
          "type": "address"
        }
      ],
      "stateMutability": "view",
      "type": "function"
    },
    {
      "inputs": [
        {
          "internalType": "address",
          "name": "",
          "type": "address"
        },
        {
          "internalType": "uint256",
          "name": "",
          "type": "uint256"
        }
      ],
      "name": "ownerToLands",
      "outputs": [
        {
          "internalType": "uint256",
          "name": "",
          "type": "uint256"
        }
      ],
      "stateMutability": "view",
      "type": "function"
    },
    {
      "inputs": [
        {
          "internalType": "string",
          "name": "surveyNumber",
          "type": "string"
        },
        {
          "internalType": "address",
          "name": "owner",
          "type": "address"
        },
        {
          "internalType": "string",
          "name": "location",
          "type": "string"
        },
        {
          "internalType": "uint256",
          "name": "area",
          "type": "uint256"
        },
        {
          "internalType": "string",
          "name": "ipfsHash",
          "type": "string"
        },
        {
          "internalType": "string",
          "name": "gpsCoordinates",
          "type": "string"
        },
        {
          "internalType": "uint256",
          "name": "marketValue",
          "type": "uint256"
        }
      ],
      "name": "registerLand",
      "outputs": [],
      "stateMutability": "nonpayable",
      "type": "function"
    },
    {
      "inputs": [
        {
          "internalType": "address",
          "name": "official",
          "type": "address"
        }
      ],
      "name": "removeAuthorizedOfficial",
      "outputs": [],
      "stateMutability": "nonpayable",
      "type": "function"
    },
    {
      "inputs": [],
      "name": "renounceOwnership",
      "outputs": [],
      "stateMutability": "nonpayable",
      "type": "function"
    },
    {
      "inputs": [
        {
          "internalType": "uint256",
          "name": "landId",
          "type": "uint256"
        },
        {
          "internalType": "address",
          "name": "newOwner",
          "type": "address"
        },
        {
          "internalType": "string",
          "name": "reason",
          "type": "string"
        }
      ],
      "name": "requestTransfer",
      "outputs": [],
      "stateMutability": "nonpayable",
      "type": "function"
    },
    {
      "inputs": [
        {
          "internalType": "string",
          "name": "",
          "type": "string"
        }
      ],
      "name": "surveyNumberToLandId",
      "outputs": [
        {
          "internalType": "uint256",
          "name": "",
          "type": "uint256"
        }
      ],
      "stateMutability": "view",
      "type": "function"
    },
    {
      "inputs": [
        {
          "internalType": "address",
          "name": "newOwner",
          "type": "address"
        }
      ],
      "name": "transferOwnership",
      "outputs": [],
      "stateMutability": "nonpayable",
      "type": "function"
    },
    {
      "inputs": [
        {
          "internalType": "uint256",
          "name": "",
          "type": "uint256"
        }
      ],
      "name": "transferRequests",
      "outputs": [
        {
          "internalType": "uint256",
          "name": "landId",
          "type": "uint256"
        },
        {
          "internalType": "address",
          "name": "from",
          "type": "address"
        },
        {
          "internalType": "address",
          "name": "to",
          "type": "address"
        },
        {
          "internalType": "uint256",
          "name": "requestDate",
          "type": "uint256"
        },
        {
          "internalType": "string",
          "name": "reason",
          "type": "string"
        },
        {
          "internalType": "bool",
          "name": "isApproved",
          "type": "bool"
        },
        {
          "internalType": "bool",
          "name": "isCompleted",
          "type": "bool"
        }
      ],
      "stateMutability": "view",
      "type": "function"
    },
    {
      "inputs": [
        {
          "internalType": "uint256",
          "name": "landId",
          "type": "uint256"
        },
        {
          "internalType": "string",
          "name": "newIpfsHash",
          "type": "string"
        }
      ],
      "name": "updateDocument",
      "outputs": [],
      "stateMutability": "nonpayable",
      "type": "function"
    },
    {
      "inputs": [
        {
          "internalType": "uint256",
          "name": "landId",
          "type": "uint256"
        }
      ],
      "name": "verifyLand",
      "outputs": [],
      "stateMutability": "nonpayable",
      "type": "function"
    }
  ],
  "bytecode": "0x608060405234801561001057600080fd5b50338061003757604051631e4fbdf760e01b81526000600482015260240160405180910390fd5b6100408161004a565b506001805561009a565b600080546001600160a01b038381166001600160a01b0319831681178455604051919092169283917f8be0079c531659141344cd1fd0a4f28419497f9722a3daafe3b4186f6b6457e09190a35050565b612465806100a96000396000f3fe608060405234801561001057600080fd5b50600436106101375760003560e01c806398bf6a6b116100b8578063d2b7a7e81161007c578063d2b7a7e8146102c9578063e261f1e5146102dc578063f02dd53f14610308578063f2fde38b14610328578063f8db80831461033b578063f9c43bdf1461034e57600080fd5b806398bf6a6b1461025d57806399807e4c14610270578063ac5c451814610290578063b3527be8146102a3578063cacca4a0146102b657600080fd5b80636e004eb4116100ff5780636e004eb4146101ec578063715018a61461021f578063722730a014610227578063842e7dba1461023a5780638da5cb5b1461024257600080fd5b806303486c401461013c57806339577db11461016b578063455b9d231461018c578063619c83ed146101ac57806361f7ce7d146101c1575b600080fd5b61014f61014a366004611b7a565b610361565b6040516101629796959493929190611be3565b60405180910390f35b61017e610179366004611c53565b610439565b604051908152602001610162565b61019f61019a366004611c7d565b61046a565b6040516101629190611c9f565b6101bf6101ba366004611b7a565b6104d6565b005b61017e6101cf366004611d86565b805160208183018101805160048252928201919093012091525481565b61020f6101fa366004611c7d565b60076020526000908152604090205460ff1681565b6040519015158152602001610162565b6101bf610735565b6101bf610235366004611c7d565b610749565b60025461017e565b6000546040516001600160a01b039091168152602001610162565b6101bf61026b366004611c7d565b610772565b61028361027e366004611b7a565b61079e565b6040516101629190611dc3565b6101bf61029e366004611e3a565b6108e5565b61017e6102b1366004611d86565b610c74565b6101bf6102c4366004611b7a565b610c9c565b6101bf6102d7366004611f0b565b610e7c565b6102ef6102ea366004611b7a565b610f3c565b6040516101629d9c9b9a99989796959493929190611f8a565b61031b610316366004611b7a565b6111da565b604051610162919061204a565b6101bf610336366004611c7d565b611510565b6101bf610349366004612167565b61154e565b6101bf61035c366004611b7a565b61187c565b6006602052600090815260409020805460018201546002830154600384015460048501805494956001600160a01b0394851695939094169391926103a4906121be565b80601f01602080910402602001604051908101604052809291908181526020018280546103d0906121be565b801561041d5780601f106103f25761010080835404028352916020019161041d565b820191906000526020600020905b81548152906001019060200180831161040057829003601f168201915b5050506005909301549192505060ff8082169161010090041687565b6005602052816000526040600020818154811061045557600080fd5b90600052602060002001600091509150505481565b6001600160a01b0381166000908152600560209081526040918290208054835181840281018401909452808452606093928301828280156104ca57602002820191906000526020600020905b8154815260200190600101908083116104b6575b50505050509050919050565b806002548111156105025760405162461bcd60e51b81526004016104f9906121f2565b60405180910390fd5b3360009081526007602052604090205460ff168061052a57506000546001600160a01b031633145b6105465760405162461bcd60e51b81526004016104f99061221f565b600082815260066020526040902060018101546001600160a01b03166105aa5760405162461bcd60e51b8152602060048201526019602482015278139bc81d1c985b9cd9995c881c995c5d595cdd08199bdd5b99603a1b60448201526064016104f9565b600581015460ff166105f65760405162461bcd60e51b8152602060048201526015602482015274151c985b9cd9995c881b9bdd08185c1c1c9bdd9959605a1b60448201526064016104f9565b6005810154610100900460ff16156106505760405162461bcd60e51b815260206004820152601a60248201527f5472616e7366657220616c726561647920636f6d706c6574656400000000000060448201526064016104f9565b60008381526003602052604090206002810154610676906001600160a01b03168561199d565b600281810180546003840180546001600160a01b038084166001600160a01b031992831617909255938601805482169490921693909317909155426008840155600c8301805460ff191690558054821660009081526005602081815260408084208054600181810183559186529285209092018a9055918701805461ff001916610100179055925492860154905192841693169187917fe30f4d2a28a67cdb8856ab10670990536f9e43edbec16c6c9094a931a58bce9591a450505050565b61073d611a71565b6107476000611a9e565b565b610751611a71565b6001600160a01b03166000908152600760205260409020805460ff19169055565b61077a611a71565b6001600160a01b03166000908152600760205260409020805460ff19166001179055565b6040805160e0810182526000808252602082018190529181018290526060808201839052608082015260a0810182905260c0810191909152600082815260066020908152604091829020825160e0810184528154815260018201546001600160a01b03908116938201939093526002820154909216928201929092526003820154606082015260048201805491929160808401919061083c906121be565b80601f0160208091040260200160405190810160405280929190818152602001828054610868906121be565b80156108b55780601f1061088a576101008083540402835291602001916108b5565b820191906000526020600020905b81548152906001019060200180831161089857829003601f168201915b50505091835250506005919091015460ff8082161515602084015261010090910416151560409091015292915050565b3360009081526007602052604090205460ff168061090d57506000546001600160a01b031633145b6109295760405162461bcd60e51b81526004016104f99061221f565b60008751116109735760405162461bcd60e51b815260206004820152601660248201527514dd5c9d995e481b9d5b58995c881c995c5d5a5c995960521b60448201526064016104f9565b6001600160a01b0386166109c15760405162461bcd60e51b8152602060048201526015602482015274496e76616c6964206f776e6572206164647265737360581b60448201526064016104f9565b6004876040516109d19190612247565b908152602001604051809103902054600014610a2f5760405162461bcd60e51b815260206004820152601760248201527f4c616e6420616c7265616479207265676973746572656400000000000000000060448201526064016104f9565b60028054906000610a3f83612279565b919050555060006002549050604051806101a00160405280828152602001898152602001886001600160a01b0316815260200160006001600160a01b031681526020018781526020018681526020018581526020014281526020016000815260200160001515815260200184815260200183815260200160006003811115610ac957610ac9611f52565b9052600082815260036020908152604090912082518155908201516001820190610af390826122e1565b5060408201516002820180546001600160a01b039283166001600160a01b031991821617909155606084015160038401805491909316911617905560808201516004820190610b4290826122e1565b5060a0820151600582015560c08201516006820190610b6190826122e1565b5060e08201516007820155610100820151600882015561012082015160098201805460ff1916911515919091179055610140820151600a820190610ba590826122e1565b50610160820151600b820155610180820151600c8201805460ff19166001836003811115610bd557610bd5611f52565b021790555090505080600489604051610bee9190612247565b908152604080519182900360209081018320939093556001600160a01b038a1660008181526005855291822080546001810182559083529390912090920183905582907f99173d30a6053de959161e46491558f9de87c7c41c88c4689b7d1e6311c1c09f90610c62908c908b908b906123a1565b60405180910390a35050505050505050565b6000600482604051610c869190612247565b9081526020016040518091039020549050919050565b80600254811115610cbf5760405162461bcd60e51b81526004016104f9906121f2565b3360009081526007602052604090205460ff1680610ce757506000546001600160a01b031633145b610d035760405162461bcd60e51b81526004016104f99061221f565b6000828152600660205260409020600101546001600160a01b0316610d665760405162461bcd60e51b8152602060048201526019602482015278139bc81d1c985b9cd9995c881c995c5d595cdd08199bdd5b99603a1b60448201526064016104f9565b60008281526006602052604090206005015460ff1615610dbb5760405162461bcd60e51b815260206004820152601060248201526f105b1c9958591e48185c1c1c9bdd995960821b60448201526064016104f9565b600082815260066020526040902060050154610100900460ff1615610e165760405162461bcd60e51b8152602060048201526011602482015270105b1c9958591e4818dbdb5c1b195d1959607a1b60448201526064016104f9565b60008281526006602052604080822060058101805460ff19166001908117909155600282015491015491516001600160a01b0391821693929091169185917f46f832fce5ed185c63ebb7f10c809c6ecbe7c0e49554433903d83d6dceef88f79190a45050565b81600254811115610e9f5760405162461bcd60e51b81526004016104f9906121f2565b3360009081526007602052604090205460ff1680610ec757506000546001600160a01b031633145b610ee35760405162461bcd60e51b81526004016104f99061221f565b6000838152600360205260409020600601610efe83826122e1565b50827f20297096221fa45cf89de8bdcc534356afd5568db828d81dc1612863edcc115d83604051610f2f91906123d7565b60405180910390a2505050565b60036020526000908152604090208054600182018054919291610f5e906121be565b80601f0160208091040260200160405190810160405280929190818152602001828054610f8a906121be565b8015610fd75780601f10610fac57610100808354040283529160200191610fd7565b820191906000526020600020905b815481529060010190602001808311610fba57829003601f168201915b5050506002840154600385015460048601805495966001600160a01b039384169692909316945091925061100a906121be565b80601f0160208091040260200160405190810160405280929190818152602001828054611036906121be565b80156110835780601f1061105857610100808354040283529160200191611083565b820191906000526020600020905b81548152906001019060200180831161106657829003601f168201915b50505050509080600501549080600601805461109e906121be565b80601f01602080910402602001604051908101604052809291908181526020018280546110ca906121be565b80156111175780601f106110ec57610100808354040283529160200191611117565b820191906000526020600020905b8154815290600101906020018083116110fa57829003601f168201915b505050600784015460088501546009860154600a870180549697939692955060ff909116935090611147906121be565b80601f0160208091040260200160405190810160405280929190818152602001828054611173906121be565b80156111c05780601f10611195576101008083540402835291602001916111c0565b820191906000526020600020905b8154815290600101906020018083116111a357829003601f168201915b50505050600b830154600c9093015491929160ff1690508d565b6111e2611aee565b816002548111156112055760405162461bcd60e51b81526004016104f9906121f2565b60036000848152602001908152602001600020604051806101a00160405290816000820154815260200160018201805461123e906121be565b80601f016020809104026020016040519081016040528092919081815260200182805461126a906121be565b80156112b75780601f1061128c576101008083540402835291602001916112b7565b820191906000526020600020905b81548152906001019060200180831161129a57829003601f168201915b505050918352505060028201546001600160a01b03908116602083015260038301541660408201526004820180546060909201916112f4906121be565b80601f0160208091040260200160405190810160405280929190818152602001828054611320906121be565b801561136d5780601f106113425761010080835404028352916020019161136d565b820191906000526020600020905b81548152906001019060200180831161135057829003601f168201915b5050505050815260200160058201548152602001600682018054611390906121be565b80601f01602080910402602001604051908101604052809291908181526020018280546113bc906121be565b80156114095780601f106113de57610100808354040283529160200191611409565b820191906000526020600020905b8154815290600101906020018083116113ec57829003601f168201915b50505091835250506007820154602082015260088201546040820152600982015460ff1615156060820152600a82018054608090920191611449906121be565b80601f0160208091040260200160405190810160405280929190818152602001828054611475906121be565b80156114c25780601f10611497576101008083540402835291602001916114c2565b820191906000526020600020905b8154815290600101906020018083116114a557829003601f168201915b5050509183525050600b8201546020820152600c82015460409091019060ff1660038111156114f3576114f3611f52565b600381111561150457611504611f52565b90525091505b50919050565b611518611a71565b6001600160a01b03811661154257604051631e4fbdf760e01b8152600060048201526024016104f9565b61154b81611a9e565b50565b826002548111156115715760405162461bcd60e51b81526004016104f9906121f2565b60008481526003602052604090206002015484906001600160a01b031633146115d15760405162461bcd60e51b81526020600482015260126024820152712737ba103a3432903630b7321037bbb732b960711b60448201526064016104f9565b6001600160a01b0384166116275760405162461bcd60e51b815260206004820152601960248201527f496e76616c6964206e6577206f776e657220616464726573730000000000000060448201526064016104f9565b6000858152600360205260409020600201546001600160a01b03908116908516036116945760405162461bcd60e51b815260206004820152601760248201527f43616e6e6f74207472616e7366657220746f2073656c6600000000000000000060448201526064016104f9565b60008581526003602081905260408220600c015460ff16908111156116bb576116bb611f52565b14806116ec57506000858152600360208190526040909120600c015460ff16818111156116ea576116ea611f52565b145b6117385760405162461bcd60e51b815260206004820152601f60248201527f4c616e64206e6f7420617661696c61626c6520666f72207472616e736665720060448201526064016104f9565b6040805160e0810182528681523360208083019182526001600160a01b038881168486019081524260608601908152608086018a8152600060a0880181905260c088018190528d81526006909552969093208551815593516001850180549184166001600160a01b03199283161790559051600285018054919093169116179055516003820155915190919060048201906117d390826122e1565b5060a08201516005909101805460c09093015115156101000261ff00199215159290921661ffff19909316929092171790556000858152600360205260409020600c0180546001919060ff191682800217905550836001600160a01b0316336001600160a01b0316867f962e9098ec9c999cf9e171626d6bed38f75fd5911f12a6fda5c2e76e895de6f58860405161186d91815260200190565b60405180910390a45050505050565b8060025481111561189f5760405162461bcd60e51b81526004016104f9906121f2565b3360009081526007602052604090205460ff16806118c757506000546001600160a01b031633145b6118e35760405162461bcd60e51b81526004016104f99061221f565b60008281526003602052604090206009015460ff161561193d5760405162461bcd60e51b815260206004820152601560248201527413185b9908185b1c9958591e481d995c9a599a5959605a1b60448201526064016104f9565b600082815260036020819052604080832060098101805460ff19908116600117909155600c909101805490911690921790915551339184917ffb9625d8f3292b4f2c77920987a97b46155b934995873c85e64429df037b005b9190a35050565b6001600160a01b0382166000908152600560205260408120905b8154811015611a6b57828282815481106119d3576119d36123ea565b906000526020600020015403611a5957815482906119f390600190612400565b81548110611a0357611a036123ea565b9060005260206000200154828281548110611a2057611a206123ea565b906000526020600020018190555081805480611a3e57611a3e612419565b60019003818190600052602060002001600090559055611a6b565b80611a6381612279565b9150506119b7565b50505050565b6000546001600160a01b031633146107475760405163118cdaa760e01b81523360048201526024016104f9565b600080546001600160a01b038381166001600160a01b0319831681178455604051919092169283917f8be0079c531659141344cd1fd0a4f28419497f9722a3daafe3b4186f6b6457e09190a35050565b604051806101a00160405280600081526020016060815260200160006001600160a01b0316815260200160006001600160a01b031681526020016060815260200160008152602001606081526020016000815260200160008152602001600015158152602001606081526020016000815260200160006003811115611b7557611b75611f52565b905290565b600060208284031215611b8c57600080fd5b5035919050565b60005b83811015611bae578181015183820152602001611b96565b50506000910152565b60008151808452611bcf816020860160208601611b93565b601f01601f19169290920160200192915050565b8781526001600160a01b038781166020830152861660408201526060810185905260e060808201819052600090611c1c90830186611bb7565b93151560a08301525090151560c09091015295945050505050565b80356001600160a01b0381168114611c4e57600080fd5b919050565b60008060408385031215611c6657600080fd5b611c6f83611c37565b946020939093013593505050565b600060208284031215611c8f57600080fd5b611c9882611c37565b9392505050565b6020808252825182820181905260009190848201906040850190845b81811015611cd757835183529284019291840191600101611cbb565b50909695505050505050565b634e487b7160e01b600052604160045260246000fd5b600082601f830112611d0a57600080fd5b813567ffffffffffffffff80821115611d2557611d25611ce3565b604051601f8301601f19908116603f01168101908282118183101715611d4d57611d4d611ce3565b81604052838152866020858801011115611d6657600080fd5b836020870160208301376000602085830101528094505050505092915050565b600060208284031215611d9857600080fd5b813567ffffffffffffffff811115611daf57600080fd5b611dbb84828501611cf9565b949350505050565b60208152815160208201526000602083015160018060a01b038082166040850152806040860151166060850152505060608301516080830152608083015160e060a0840152611e16610100840182611bb7565b905060a0840151151560c084015260c0840151151560e08401528091505092915050565b600080600080600080600060e0888a031215611e5557600080fd5b873567ffffffffffffffff80821115611e6d57600080fd5b611e798b838c01611cf9565b9850611e8760208b01611c37565b975060408a0135915080821115611e9d57600080fd5b611ea98b838c01611cf9565b965060608a0135955060808a0135915080821115611ec657600080fd5b611ed28b838c01611cf9565b945060a08a0135915080821115611ee857600080fd5b50611ef58a828b01611cf9565b92505060c0880135905092959891949750929550565b60008060408385031215611f1e57600080fd5b82359150602083013567ffffffffffffffff811115611f3c57600080fd5b611f4885828601611cf9565b9150509250929050565b634e487b7160e01b600052602160045260246000fd5b60048110611f8657634e487b7160e01b600052602160045260246000fd5b9052565b8d81526101a060208201526000611fa56101a083018f611bb7565b6001600160a01b038e1660408401526001600160a01b038d1660608401528281036080840152611fd5818d611bb7565b90508a60a084015282810360c0840152611fef818b611bb7565b90508860e08401528761010084015261200d61012084018815159052565b8281036101408401526120208187611bb7565b91505083610160830152612038610180830184611f68565b9e9d5050505050505050505050505050565b6020815281516020820152600060208301516101a08060408501526120736101c0850183611bb7565b9150604085015161208f60608601826001600160a01b03169052565b5060608501516001600160a01b0381166080860152506080850151601f19808685030160a08701526120c18483611bb7565b935060a087015160c087015260c08701519150808685030160e08701526120e88483611bb7565b60e08801516101008881019190915288015161012080890191909152880151909450915061014061211c8188018415159052565b808801519250506101608187860301818801526121398584611bb7565b9088015161018088810191909152880151909450915061215d905082860182611f68565b5090949350505050565b60008060006060848603121561217c57600080fd5b8335925061218c60208501611c37565b9150604084013567ffffffffffffffff8111156121a857600080fd5b6121b486828701611cf9565b9150509250925092565b600181811c908216806121d257607f821691505b60208210810361150a57634e487b7160e01b600052602260045260246000fd5b60208082526013908201527213185b9908191bd95cc81b9bdd08195e1a5cdd606a1b604082015260600190565b6020808252600e908201526d139bdd08185d5d1a1bdc9a5e995960921b604082015260600190565b60008251612259818460208701611b93565b9190910192915050565b634e487b7160e01b600052601160045260246000fd5b60006001820161228b5761228b612263565b5060010190565b601f8211156122dc57600081815260208120601f850160051c810160208610156122b95750805b601f850160051c820191505b818110156122d8578281556001016122c5565b5050505b505050565b815167ffffffffffffffff8111156122fb576122fb611ce3565b61230f8161230984546121be565b84612292565b602080601f831160018114612344576000841561232c5750858301515b600019600386901b1c1916600185901b1785556122d8565b600085815260208120601f198616915b8281101561237357888601518255948401946001909101908401612354565b50858210156123915787850151600019600388901b60f8161c191681555b5050505050600190811b01905550565b6060815260006123b46060830186611bb7565b82810360208401526123c68186611bb7565b915050826040830152949350505050565b602081526000611c986020830184611bb7565b634e487b7160e01b600052603260045260246000fd5b8181038181111561241357612413612263565b92915050565b634e487b7160e01b600052603160045260246000fdfea26469706673582212201807e9f51ed44fd9a6ccfb2424b395d3d5d367e44ad66f61ba1cfe041c9966e064736f6c63430008140033",
  "linkReferences": {},
  "deployedLinkReferences": {}
}